:02000000F82BDB
:1005480064008001840A0406031900340406A52AFD
:1005580083169F0183129F01073099008316990122
:10056800DE30850007308100831285018512051071
:100578008519BF2AC02A0F2B0630B200B20BC22A37
:10058800000083128519C92ACA2A0F2B8516B001C3
:10059800B101E32A0130A007003003180130A10798
:1005A800003003180130A207003003180130A307F8
:1005B800C730B200DF2AB20BDE2AE22AE32A83120E
:1005C8002308031DF52A2208031DF52A0F302102EE
:1005D800031DF22AD7302002031DF22A0318F52A38
:1005E800F62A012B8312051DFA2AFB2A012B300853
:1005F80031040319002B012BCE2A00308312A300EB
:100608000030A2000030A1000030A0000130B0008E
:100618000030B10085120519122B132B1F2B063041
:10062800B200B20B152B0000831205191C2B1D2BD1
:100638001F2B851205108518222B232BA62B300380
:100648003104031D282B292BA62B3F2B0130A00793
:10065800003003180130A107003003180130A20749
:10066800003003180130A307C730B2003B2BB20B90
:100678003A2B3E2B3F2B83122308031D512B2208B4
:10068800031D512B06302102031D4E2B563020022C
:10069800031D4E2B0318512B522B612B83128518E7
:1006A800562B572B612B051D5A2B5B2B612B3008C2
:1006B80031040319602B612B2A2B83128518652BB3
:1006C800662BA62B30033104031D6B2B6C2BA62B3A
:1006D80085120514B001B101862B0130A007003046
:1006E80003180130A107003003180130A2070030B9
:1006F80003180130A307C730B200822BB20B812B3D
:10070800852B862B83122308031D982B2208031D93
:10071800982B0C302102031D952BAC302002031DB1
:10072800952B0318982B992BA42B8312051D9D2B11
:100738009E2BA42B300831040319A32BA42B712B57
:1007480083120510051AA92BAA2BBC2A30033104E1
:10075800031DAF2BB02BBC2AC62B0130A0070030DD
:1007680003180130A107003003180130A207003038
:1007780003180130A307C730B200C22BB20BC12B3C
:10078800C52BC62B83122308031DD82B2208031D53
:10079800D82B09302102031DD52B81302002031DDF
:1007A800D52B0318D82BD92BE82B8312051ADD2B50
:1007B800DE2BE82B051DE12BE22BE82B300831045A
:1007C8000319E72BE82BB12B8312051AEC2BED2B21
:1007D800BC2A30033104031DF22BF32BBC2AB001D1
:1007E800B1018512BC2A00288313203084003230DE
:0607F800A4228301AC2ADB
:08400000FF3FFF3FFF3FFF3FC0
:02400E0014306C
:00000001FF
